:020000001028C6
:10000800FE00030E83120313A2000408A3000A08CB
:10001800A4007F08A500012E1128FD26FD008313EA
:10002800B2308400BE30D5264C3084005C30D526F2
:06003800FC018301082910
:100200000029FF0001308A007F0882070629572C49
:10021000422627268426A624003083120313A80032
:10022000A9005B2683120313C800C901480883167E
:100230000313A00083120313490883160313A100BC
:10024000413083120313C900EE30C800C80B2629C1
:10025000C90B26292D3083120313A8000030A900F2
:100260005B2683120313C800C901480883160313D1
:10027000A20083120313490883160313A30041301D
:1002800083120313C900EE30C800C80B4529C90BFF
:1002900045292C3083120313A8000030A9005B26E7
:1002A00083120313C800C901480883160313A4006E
:1002B00083120313490883160313A500831603133F
:1002C000B001B101AE01AF01AC01AD01F126A63024
:1002D000C1263230C126F726A730C12697268312C1
:1002E0000313C800480883160313A600DD269726CB
:1002F00083120313C800480883160313A700DD26E2
:10030000972683120313C800480883160313A90015
:10031000DD26972683120313C800480883160313AB
:10032000A800DD26972683120313C8004808831609
:100330000313AB00DD26972683120313C800480879
:1003400083160313AA00E426EB268316031326085C
:1003500083120313C800C9018316031327088312ED
:100360000313CA00CB014A08CB00CA0148084A045B
:1003700083160313AC008312031349084B0483163E
:100380000313AD00290883120313C800C9018316A3
:100390000313280883120313CA00CB014A08CB00B9
:1003A000CA0148084A0483160313AE0083120313DC
:1003B00049084B0483160313AF002B088312031361
:1003C000C800C901831603132A0883120313CA0045
:1003D000CB014A08CB00CA0148084A04831603131C
:1003E000B0008312031349084B0483160313B100B2
:1003F0002D0883120313C300831603132C088312E2
:100400000313C200AB23831203134308DB0042082B
:10041000DA00831603132F0883120313C300831615
:1004200003132E0883120313C200552383120313F0
:100430004308D9004208D8008316031331088312F9
:100440000313C30083160313300883120313C2007F
:10045000FF22831203134308D7004208D60003305B
:10046000A6000030A7005B08A9005A08A8003225A2
:10047000831203132608C8002708C9000330A6000A
:100480000030A7005908A9005808A8003225831297
:10049000031326084807CA0027080318270A490734
:1004A000CB000330A6000030A7005708A90056086B
:1004B000A80032258312031326084A07D400270810
:1004C0000318270A4B07D5005508C3005408C2007B
:1004D0000124831203134308D5004208D4005E2987
:1004E00083120313BD01B61F822AB309B409B509EB
:1004F000B609B30A0319B40A0319B50A0319B60AEF
:10050000BD01BD0ABA1F932AB709B809B909BA09CA
:10051000B70A0319B80A0319B90A0319BA0A01304C
:10052000BB003B08BD060030C1000030C0000030F9
:10053000BF000030BE00360835043404330403190C
:10054000E82ABC01BC0AB61BB32A0130BB00031069
:10055000B30DB40DB50DB60DBB0BA72A0130BB0012
:100560003B08BC07A32A0130BB000310BE0DBF0D22
:10057000C00DC10DBB0BB52A36083A02031DCA2AAD
:1005800035083902031DCA2A34083802031DCA2A55
:1005900033083702031CDB2A3308B7023408031C74
:1005A000340FB8023508031C350FB9023608031C96
:1005B000360FBA023E1401300310B60CB50CB40C61
:1005C000B30CFF3E031DDC2A0130BC02031DB32A1D
:1005D0003D080319F62ABE09BF09C009C109BE0AB0
:1005E0000319BF0A0319C00A0319C10A4108B6005A
:1005F0004008B5003F08B4003E08B30008000030D2
:1006000083120313B6000030B5000030B40064302C
:10061000B3004E08C4004F08C5000030C51BFF30B2
:10062000C600C70003300310C40DC50DC60DC70DAD
:10063000FF3E031D132B4208A6004308A70000300D
:10064000A71BFF30A800A9000030AD000030AC00AF
:100650000030AB005C30AA00F1248312031326089B
:10066000C40727080318270F362B372BC507280880
:100670000318280F3C2B3D2BC60729080318290A0D
:10068000C7074708BA004608B9004508B80044083B
:10069000B7007022831203133408CF003308CE0052
:1006A0004F08C3004E08C200080000308312031335
:1006B000B6000030B5000030B4006430B30050081C
:1006C000C4005108C5000030C51BFF30C600C7007C
:1006D00003300310C40DC50DC60DC70DFF3E031D2D
:1006E000692B4208A6004308A7000030A71BFF3073
:1006F000A800A9000030AD000030AC000030AB0015
:100700005C30AA00F124831203132608C4072708CB
:100710000318270F8C2B8D2BC50728080318280FCB
:10072000922B932BC60729080318290AC7074708E5
:10073000BA004608B9004508B8004408B70070225E
:10074000831203133408D1003308D0005108C300CA
:100750005008C2000800003083120313B6000030B6
:10076000B5000030B4006430B3005208C400530830
:10077000C5000030C51BFF30C600C70003300310A2
:10078000C40DC50DC60DC70DFF3E031DBF2B42088E
:10079000A6004308A7000030A71BFF30A800A9004F
:1007A0000030AD000030AC000030AB005C30AA007F
:1007B000F124831203132608C40727080318270F00
:1007C000E22BE32BC50728080318280FE82BE92B99
:1007D000C60729080318290AC7074708BA004608A8
:1007E000B9004508B8004408B7007022831203130B
:1007F0003408D3003308D2005308C3005208C200A3
:100800000800003083120313B6000030B50000303A
:10081000B4006430B3004C08C4004D08C50000307B
:10082000C51BFF30C600C70003300310C40DC50D43
:10083000C60DC70DFF3E031D152C4208A600430838
:10084000A7000030A71BFF30A800A9000030AD00B2
:100850000030AC000030AB005C30AA00F124831201
:1008600003132608C40727080318270F382C392C30
:10087000C50728080318280F3E2C3F2CC607290857
:100880000318290AC7074708BA004608B9004508EF
:10089000B8004408B7007022831203133408CD0057
:1008A0003308CC004D08C3004C08C2000800831276
:1008B00003135B08FB007B0883160313B500831248
:1008C00003135A08FB007B0883160313B600831238
:1008D00003135908FB007B0883160313B700831228
:1008E00003135808FB007B0883160313B800831218
:1008F00003135708FB007B0883160313B900831208
:1009000003135608FB007B0883160313BA007025F7
:100910007108FB007B0883160313B3007025700871
:10092000FB007B0883160313B400831203135508DE
:10093000FB007B0883160313BB00831203135408C8
:10094000FB007B0883160313BC00080038308312B9
:100950000313A7000030A8009F30AA002A08A900AE
:10096000A726413083120313AB00EE30AA00AA0B76
:10097000B72CAB0BB72C313083120313A700003018
:10098000A8000930AA002A08A900A726413083122E
:100990000313AB00EE30AA00AA0BCC2CAB0BCC2C73
:1009A0002C3083120313A7000030A8000D30AA00DA
:1009B0002A08A900A726413083120313AB00EE30AA
:1009C000AA00AA0BE12CAB0BE12C2D3083120313F0
:1009D000A7000030A8000830AA002A08A900A7260E
:1009E0000800003083120313B2000030B100003061
:1009F000B0000030AF00261C112D2A08AF072B08CD
:100A000003110318013E031DB0072C08031103183E
:100A1000013E031DB1072D0803110318013E031DFC
:100A2000B2070130AE000310AA0DAB0DAC0DAD0D39
:100A3000AE0B132D01300310A90CA80CA70CA60CAB
:100A4000FF3E031D1B2D2908280427042604031D2F
:100A5000FB2C3208A9003108A8003008A7002F0895
:100A6000A600080083120313AC01AD012608270479
:100A700003196B2DAB01AB0AA71B4A2D01300310E4
:100A8000A60DA70DFF3E031D3F2D0130AA002A0829
:100A9000AB073C2D01300310AC0DAD0DFF3E031D27
:100AA0004B2D27082902031D572D26082802031C59
:100AB000602D2608A8022708031CA903A9022C14EC
:100AC00001300310A70CA60CFF3E031D612D013061
:100AD000AB02031D4A2D2D08A7002C08A600080014
:100AE000F901FA010230831203139F002730F3004B
:100AF000F530F200F20B7A2DF30B7A2D83160313E7
:100B00001E08F20006300310F20CFF3E031D832D79
:100B10007208F300F401831203131E08F500F601B6
:100B20000310F50DF60D0310F50DF60D73087504A1
:100B3000F70074087604F8007708F9007808FA00DE
:100B40007A08F1007908F0000800F300F601F401DA
:100B5000700874020318D42D74087307F10071082B
:100B6000840083130008F2007208F606F5010830CD
:100B700075020318CF2DF61FC52D7608F1007107F9
:100B80001D3AF2007208F600C72D0310F60D013071
:100B9000F1007108F50708307502031CBB2D013008
:100BA000F1007108F407A82D76080800F300F4019D
:100BB000F501F401F50171087502031DE12D7008BE
:100BC00074020318FD2D831203130C1EE32D740809
:100BD0007307F20072088400831300089900013043
:100BE000F4070318F50A0030F50771087502031DB4
:100BF000FB2D70087402031CE32D831203130C12E7
:100C000008008C1E1C2E8B137D0801210B308312D3
:100C10000313A0002008F000B230A52583120313AF
:100C2000A100210883160313BD00B4268B1783127D
:100C300003138C12013087062508FF0024088A0060
:100C400023088400220E8300FE0E7E0E0900831608
:100C5000031318111F3099001812831203139817E9
:100C6000831603130717871798168C160B178B1705
:100C7000831203131816712683120313A700270883
:100C8000DC000800831603138113FF308600FF3059
:100C90009500831203139F0183160317880188159B
:100CA0008316031385150D30831203139F008316DB
:100CB000031789010800F126A630C1268312031309
:100CC0002808C126F726A730C126972683120313CA
:100CD000AA002A08AB00E426EB26831203132B0894
:100CE00008003F30831203130605A6008316031382
:100CF000320883120313260680392606831603134F
:100D0000B20032087F3908008316031387150716CF
:100D10009417283083120313940083160313910150
:100D200031309300831203138C118D110800831648
:100D300003139115141C9A2E831203131308A60093
:100D40002608A700CC268312031327080800F126E3
:100D5000A630C126831203132708C126831203136A
:100D60002908C126EB260800831203131A085C0623
:100D7000031D08000C30F0000030F100B230D62521
:100D8000080083120313A60026089300831603139A
:100D90001418C62ECC2608008316031311081F3919
:100DA000031DCC2E141D0800CC2E64008001840A83
:100DB0000406031900340406D62E83160313911279
:100DC0001116111E0800E12E831603139116111639
:100DD000111E0800E82E831603131115111D0800BB
:100DE000EE2E831603131114111C0800F42E831623
:0C0DF00003139114911C0800FA2E01342A
:04400E00F2E0FFFFDE
:00000001FF
