:020000001028C6
:10000800FE00030EF9000408FA000A08FB00831238
:1000180003137F08FC00682D11284926FD0083136F
:10002800A0308400AB302126583084006930212666
:04003800830108290F
:100200000029FF0001308A007F0882070629482C58
:10021000F8258A25BB25FD23003083120313A20095
:10022000A300A52583120313C200C3014208C60020
:100230004308C700413083120313C300EE30C200ED
:10024000C20B2029C30B20292D3083120313A200D7
:100250000030A300A52583120313C200C301420886
:10026000C8004308C900413083120313C300EE30B5
:10027000C200C20B3929C30B39292C308312031356
:10028000A2000030A300A52583120313C200C301FE
:100290004208CA004308CB00D001D101CE01CF01F2
:1002A000CC01CD013D26A63004263230042643265B
:1002B000A7300426CE2583120313C2004208D200C1
:1002C0002926CE2583120313C2004208D300292613
:1002D000CE2583120313C2004208D5002926CE255D
:1002E00083120313C2004208D4002926CE258312AC
:1002F0000313C2004208D7002926CE258312031318
:10030000C2004208D6003026372683120313520853
:10031000C200C3015308C400C5014408C500C4019C
:1003200042084404CC0043084504CD005508C200EF
:10033000C3015408C400C5014408C500C4014208F3
:100340004404CE0043084504CF005708C200C3014F
:100350005608C400C5014408C500C401420844044D
:10036000D00043084504D1004D08BD004C08BC0036
:100370005123831203133D08E7003C08E6004F08B1
:10038000BD004E08BC00FB22831203133D08E500AC
:100390003C08E4005108BD005008BC00A5228312AF
:1003A00003133D08E3003C08E2000330A0000030E6
:1003B000A1006708A3006608A200CE2483120313DD
:1003C0002008C2002108C3000330A0000030A100B3
:1003D0006508A3006408A200CE248312031320083A
:1003E0004207C40021080318210A4307C50003304F
:1003F000A0000030A1006308A3006208A200CE2480
:100400008312031320084407E00021080318210A7F
:100410004507E1006108BD006008BC00A723831206
:1004200003133D08E1003C08E0004C29831203134C
:10043000B701B01F282AAD09AE09AF09B009AD0A4E
:100440000319AE0A0319AF0A0319B00AB701B70AB4
:10045000B41F392AB109B209B309B409B10A0319A1
:10046000B20A0319B30A0319B40A0130B5003508FA
:10047000B7060030BB000030BA000030B9000030D1
:10048000B80030082F042E042D0403198E2AB6015B
:10049000B60AB01B592A0130B5000310AD0DAE0DE0
:1004A000AF0DB00DB50B4D2A0130B5003508B607BC
:1004B000492A0130B5000310B80DB90DBA0DBB0DB6
:1004C000B50B5B2A30083402031D702A2F08330253
:1004D000031D702A2E083202031D702A2D083102D6
:1004E000031C812A2D08B1022E08031C2E0FB20214
:1004F0002F08031C2F0FB3023008031C300FB40267
:10050000381401300310B00CAF0CAE0CAD0CFF3E34
:10051000031D822A0130B602031D592A3708031928
:100520009C2AB809B909BA09BB09B80A0319B90A5A
:100530000319BA0A0319BB0A3B08B0003A08AF0016
:100540003908AE003808AD000800003083120313EC
:10055000B0000030AF000030AE006430AD005A088B
:10056000BE005B08BF000030BF1BFF30C000C100F1
:1005700003300310BE0DBF0DC00DC10DFF3E031DA6
:10058000B92A3C08A0003D08A1000030A11BFF30A3
:10059000A200A3000030A7000030A6000030A50094
:1005A0005C30A4008D24831203132008BE072108A9
:1005B0000318210FDC2ADD2ABF0722080318220FA7
:1005C000E22AE32AC00723080318230AC1074108C7
:1005D000B4004008B3003F08B2003E08B100162244
:1005E000831203132E08DB002D08DA005B08BD0020
:1005F0005A08BC000800003083120313B00000301A
:10060000AF000030AE006430AD005C08BE005D0895
:10061000BF000030BF1BFF30C000C100033003101B
:10062000BE0DBF0DC00DC10DFF3E031D0F2B3C08BD
:10063000A0003D08A1000030A11BFF30A200A300D4
:100640000030A7000030A6000030A5005C30A400F8
:100650008D24831203132008BE0721080318210FDD
:10066000322B332BBF0722080318220F382B392BCC
:10067000C00723080318230AC1074108B400400833
:10068000B3003F08B2003E08B100162283120313E4
:100690002E08DD002D08DC005D08BD005C08BC00F4
:1006A0000800003083120313B0000030AF000030A8
:1006B000AE006430AD005E08BE005F08BF000030D1
:1006C000BF1BFF30C000C10003300310BE0DBF0DC3
:1006D000C00DC10DFF3E031D652B3C08A0003D0869
:1006E000A1000030A11BFF30A200A3000030A70032
:1006F0000030A6000030A5005C30A4008D248312D9
:1007000003132008BE0721080318210F882B892B0B
:10071000BF0722080318220F8E2B8F2BC007230838
:100720000318230AC1074108B4004008B3003F087A
:10073000B2003E08B1001622831203132E08DF0018
:100740002D08DE005F08BD005E08BC000800003018
:1007500083120313B0000030AF000030AE006430ED
:10076000AD005808BE005908BF000030BF1BFF3065
:10077000C000C10003300310BE0DBF0DC00DC10D80
:10078000FF3E031DBB2B3C08A0003D08A10000302C
:10079000A11BFF30A200A3000030A7000030A6007C
:1007A0000030A5005C30A4008D24831203132008C0
:1007B000BE0721080318210FDE2BDF2BBF072208FD
:1007C0000318220FE42BE52BC00723080318230A84
:1007D000C1074108B4004008B3003F08B2003E081A
:1007E000B1001622831203132E08D9002D08D80059
:1007F0005908BD005808BC000800383083120313A4
:10080000A1000030A2009F30A4002408A300DE2530
:10081000413083120313A500EE30A400A40B0E2C6C
:10082000A50B0E2C313083120313A1000030A2005F
:100830000930A4002408A300DE25413083120313ED
:10084000A500EE30A400A40B232CA50B232C2C30E8
:1008500083120313A1000030A2000D30A40024086D
:10086000A300DE25413083120313A500EE30A4005F
:10087000A40B382CA50B382C2D3083120313A100A8
:100880000030A2000830A4002408A300DE250800E0
:10089000831203136708F000700883160313A20085
:1008A000831203136608F000700883160313A30075
:1008B000831203136508F000700883160313A40065
:1008C000831203136408F000700883160313A50055
:1008D000831203136308F000700883160313A60045
:1008E000831203136208F000700883160313A70035
:1008F0005530F0007008A100831203136108F00066
:10090000700883160313A800831203136008F00015
:10091000700883160313A900080000308312031324
:10092000AC000030AB000030AA000030A900201C51
:10093000AD2C2408A907250803110318013E031D47
:10094000AA07260803110318013E031DAB07270859
:1009500003110318013E031DAC070130A80003106A
:10096000A40DA50DA60DA70DA80BAF2C01300310EB
:10097000A30CA20CA10CA00CFF3E031DB72C230856
:10098000220421042004031D972C2C08A3002B080B
:10099000A2002A08A1002908A0000800831203135E
:1009A000A501A601200821040319072DA701A70A04
:1009B000A11BE62C01300310A00DA10DFF3E031D6D
:1009C000DB2C0130A4002408A707D82C0130031029
:1009D000A50DA60DFF3E031DE72C21082302031DD4
:1009E000F32C20082202031CFC2C2008A202210860
:1009F000031CA303A302251401300310A10CA00CB7
:100A0000FF3E031DFD2C0130A702031DE62C260826
:100A1000A1002508A0000800F300F601F401700809
:100A2000740203183B2D74087307F10071088400E9
:100A300083130008F2007208F606F501083075020B
:100A40000318362DF61F2C2D7608F10071071D3A7C
:100A5000F2007208F6002E2D0310F60D0130F100A1
:100A60007108F50708307502031C222D0130F100D2
:100A70007108F4070F2D76080800F300F401F50162
:100A8000F401F50171087502031D482D7008740208
:100A90000318642D831203130C1E4A2D7408730768
:100AA000F200720884008313000899000130F407F3
:100AB0000318F50A0030F50771087502031D622D51
:100AC00070087402031C4A2D831203130C120800D1
:100AD0008C1E7F2D8B137D0801210A30F7007708CB
:100AE000F000A0300C25F800780883160313AA0044
:100AF000EB258B17831203138C12013087067C08B9
:100B0000FF007B088A007A088400790E8300FE0EBD
:100B10007E0E09008316031318111F309900181256
:100B20008312031398178316031307178717981652
:100B30008C160B178B178312031318160F268312AC
:100B40000313A0002008E90008003D26A630042673
:100B500083120313220804264326A7300426CE2539
:100B600083120313A4002408A5003026372683121D
:100B70000313250808008316031387150716941717
:100B8000283083120313940083160313910131302C
:100B90009300831203138C118D1108008316031325
:100BA0009115141CD12D831203131308A0002008E3
:100BB000A100182683120313210808003D26A63041
:100BC0000426831203132108042683120313230827
:100BD000042637260800831203131A086906031D2A
:100BE00008000B30F0000030F100A0303D25080077
:100BF000831603130710FF308500831203139F0130
:100C0000831603178801080083120313A00020082D
:100C10009300831603131418092E18260800831650
:100C20000313200880393538A00020087F390800D8
:100C30008316031311081F39031D182E141D0800F5
:100C4000182E64008001840A040603190034040687
:100C5000222E8316031391121116111E08002D2E39
:100C60008316031391161116111E0800342E8316D5
:100C700003131115111D08003A2E831603131114C6
:100C8000111C0800402E831603139114911C0800B8
:040C9000462E0134B7
:04400E00D2E0FFFFFE
:00000001FF
