:020000001028C6
:10000800FE00030EF6000408F7000A08F800831241
:1000180003137F08F900C22A1128FB0183134F300C
:1000280084005F3040238301192814239122D722AA
:100038006221003083120313A200A300AC228312B2
:100048000313B300B4013308B7003408B800370805
:100058002023413083120313B400EE30B300B30BF6
:100068003328B40B33282D3083120313A200003039
:10007800A300AC2283120313B300B4013308B90000
:100088003408BA0039082023413083120313B4001E
:10009800EE30B300B30B4E28B40B4E282C3083122D
:1000A8000313A2000030A300AC2283120313B30091
:1000B800B4013308BB003408BC003B08202383127A
:1000C8000313C101C201BF01C001BD01BE015C2310
:1000D800A6302C2332302C236223A7302C23EA228B
:1000E80083120313B3003308C3004823EA228312A0
:1000F8000313B3003308C4004823EA22831203130E
:10010800B3003308C6004823EA2283120313B3005E
:100118003308C5004823EA2283120313B3003308C7
:10012800C8004823EA2283120313B3003308C70028
:100138004F235623831203134308B300B401440822
:10014800B500B6013508B600B50133083504BD0061
:1001580034083604BE004608B300B4014508B500AB
:10016800B6013508B600B50133083504BF003408B8
:100178003604C0004808B300B4014708B500B6010A
:100188003508B600B50133083504C1003408360413
:10019800C2003E08B0003D08AF00112283120313CD
:1001A8003008CA002F08C9004008B0003F08AF0057
:1001B800DF21831203133008CC002F08CB0042083C
:1001C800B0004108AF00AD21831203133008CE0000
:1001D8002F08CD004A08B3003308D8004908B300F7
:1001E8003308D9004C08B3003308DA004B08B300D1
:1001F8003308DB004E08B3003308DC004D08B300B9
:100208003308DD00632883120313AC01A71F1329E9
:10021800A609A709A60A0319A70AAC01AC0AA91FCF
:100228001E29A809A909A80A0319A90A0130AA00C0
:100238002A08AC06AD01AE01260827040319552982
:10024800AB01AB0AA71B342901300310A60DA70D7B
:10025800FF3E031D29290130AA002A08AB072629D9
:1002680001300310AD0DAE0DFF3E031D35292708E3
:100278002902031D412926082802031C4A292608A9
:10028800A8022708031CA903A9022D140130031092
:10029800A70CA60CFF3E031D4B290130AB02031D22
:1002A80034292C0803195D29AD09AE09AD0A0319D3
:1002B800AE0A2E08A7002D08A600080038308312C1
:1002C8000313A1000030A2009F30A4002408A3005B
:1002D800FA22413083120313A500EE30A400A40BC8
:1002E8007329A50B7329313083120313A100003041
:1002F800A2000930A4002408A300FA224130831286
:100308000313A500EE30A400A40B8829A50B8829A7
:100318002C3083120313A1000030A2000D30A4007A
:100328002408A300FA22413083120313A500EE30FB
:10033800A400A40B9D29A50B9D292D30831203131E
:10034800A1000030A2000830A4002408A300FA226B
:100358000800643083120313A6000030A700500879
:10036800B2004F08B1000310B10DB20D0310B10D6A
:10037800B20D0310B10DB20D3008A1002F08A00076
:100388005C30A2000030A3006E22831203133108F0
:100398002007A80032080318320A2107A9000721FC
:1003A800831203132708D0002608CF005008B00096
:1003B8004F08AF000800643083120313A600003012
:1003C800A7005208B2005108B1000310B10DB20DD8
:1003D8000310B10DB20D0310B10DB20D3008A1001C
:1003E8002F08A0005C30A2000030A3006E22831208
:1003F800031331082007A80032080318320A21071E
:10040800A9000721831203132708D2002608D10068
:100418005208B0005108AF0008006430831203137B
:10042800A6000030A7005408B2005308B10003101A
:10043800B10DB20D0310B10DB20D0310B10DB20D17
:100448003008A1002F08A0005C30A2000030A300F3
:100458006E228312031331082007A80032080318FC
:10046800320A2107A9000721831203132708D400A1
:100478002608D3005408B0005308AF000800F30062
:10048800F401F501F401F50171087502031D4E2A06
:100498007008740203186A2A831203130C1E502A68
:1004A80074087307F2007208840083130008990027
:1004B8000130F4070318F50A0030F50771087502D2
:1004C800031D682A70087402031C502A8312031340
:1004D8000C12080083120313A401A501201C7A2A18
:1004E8002208A4070318A50A2308A507013003104A
:1004F800A20DA30DFF3E031D7B2A01300310A10CA2
:10050800A00CFF3E031D822A20082104031D722A25
:100518002508A1002408A000080083160313181159
:100528001F309900181283120313981783160313A8
:100538000717871798168C160B178B178312031338
:100548001816682383120313A0002008FA00080075
:100558005C23A6302C238312031322082C23622346
:10056800A7302C23EA2283120313A4002408A50031
:100578004F23562383120313250808008C1ECC2A08
:100588008B1307238B17831203138C1201308706F2
:100598007908FF0078088A0077088400760E8300BF
:1005A800FE0E7E0E0900831603138715071694178F
:1005B80028308312031394008316031391013130FA
:1005C8009300831203138C118D11080083160313F3
:1005D8009115141CED2A831203131308A000200898
:1005E800A100372383120313210808005C23A630D7
:1005F8002C238312031321082C23831203132308AB
:100608002C2356230800831203131A087A06031DA5
:1006180008000A30F0000030F1005530432208008D
:10062800831603130710FF308500831203139F01FD
:10063800831603178801080083120313A00083168A
:100648000313981C232B8312031320089900080016
:1006580083120313A00020089300831603131418B1
:10066800312B372308008316031311081F39031D84
:10067800372B141D0800372B64008001840A0406F8
:10068800031900340406412B831603139112111623
:10069800111E08004C2B8316031391161116111EF8
:1006A8000800532B831603131115111D0800592B2D
:1006B800831603131114111C08005F2B83160313F0
:0C06C8009114911C0800652B35300800CF
:04400E00D2E0FFFFFE
:00000001FF
