:020000001028C6
:10000800FE00030E83120313A2000408A3000A08CB
:10001800A4007F08A5009A2D11286726FD008313E8
:10002800A0308400AC303F265830840068303F262A
:06003800FC018301082910
:100200000029FF0001308A007F0882070629062C9A
:10021000DD25BE25F0255B26A6302B262D302B268E
:1002200000302B265526413083120313C900EE30CF
:10023000C800C80B1929C90B19295B26A6302B2623
:1002400031302B2608302B265526413083120313DC
:10025000C900EE30C800C80B2B29C90B2B295B261F
:10026000A6302B262C302B2609302B265526413044
:1002700083120313C900EE30C800C80B3D29C90B17
:100280003D295B26A6302B262D302B2608302B2629
:100290005526413083120313C900EE30C800C80B45
:1002A0004F29C90B4F2983120313D001D101CE016D
:1002B000CF01CC01CD015B26A6302B2632302B2678
:1002C0006126A7302B26032683120313C800480893
:1002D000D2004E26032683120313C8004808D30019
:1002E0004E26032683120313C8004808D5004E2665
:1002F000032683120313C8004808D4004E260326A1
:1003000083120313C8004808D7004E260326831221
:100310000313C8004808D600472655268312031346
:100320005208C800C9015308CA00CB014A08CB00D3
:10033000CA0148084A04CC0049084B04CD005508BE
:10034000C800C9015408CA00CB014A08CB00CA0141
:1003500048084A04CE0049084B04CF005708C8009B
:10036000C9015608CA00CB014A08CB00CA01480897
:100370004A04D00049084B04D1004D08C3004C0882
:10038000C2005A23831203134308E7004208E60021
:100390004F08C3004E08C20004238312031343080E
:1003A000E5004208E4005108C3005008C200AE2234
:1003B000831203134308E3004208E2000330A6005F
:1003C0000030A7006708A9006608A80096248312D9
:1003D00003132608C8002708C9000330A600003010
:1003E000A7006508A9006408A800962483120313D7
:1003F00026084807CA0027080318270A4907CB0020
:100400000330A6000030A7006308A9006208A80016
:1004100096248312031326084A07E00027080318CE
:10042000270A4B07E1006108C3006008C200B0233F
:10043000831203134308E1004208E00053298312AA
:100440000313BD01B61F312AB309B409B509B609B2
:10045000B30A0319B40A0319B50A0319B60ABD0190
:10046000BD0ABA1F422AB709B809B909BA09B70AB9
:100470000319B80A0319B90A0319BA0A0130BB00F3
:100480003B08BD060030C1000030C0000030BF0096
:100490000030BE0036083504340433040319972AAB
:1004A000BC01BC0AB61B622A0130BB000310B30DAD
:1004B000B40DB50DB60DBB0B562A0130BB003B0881
:1004C000BC07522A0130BB000310BE0DBF0DC00D8A
:1004D000C10DBB0B642A36083A02031D792A350880
:1004E0003902031D792A34083802031D792A33089A
:1004F0003702031C8A2A3308B7023408031C340F5E
:10050000B8023508031C350FB9023608031C360F34
:10051000BA023E1401300310B60CB50CB40CB30C87
:10052000FF3E031D8B2A0130BC02031D622A3D08D9
:100530000319A52ABE09BF09C009C109BE0A0319CA
:10054000BF0A0319C00A0319C10A4108B6004008CE
:10055000B5003F08B4003E08B30008000030831225
:100560000313B6000030B5000030B4006430B300AF
:100570005A08C4005B08C5000030C51BFF30C60028
:10058000C70003300310C40DC50DC60DC70DFF3ED7
:10059000031DC22A4208A6004308A7000030A71B7B
:1005A000FF30A800A9000030AD000030AC000030E2
:1005B000AB005C30AA005524831203132608C4073D
:1005C00027080318270FE52AE62AC5072808031875
:1005D000280FEB2AEC2AC60729080318290AC7079F
:1005E0004708BA004608B9004508B8004408B700F3
:1005F0001F22831203133408DB003308DA005B0880
:10060000C3005A08C2000800003083120313B6006A
:100610000030B5000030B4006430B3005C08C400A2
:100620005D08C5000030C51BFF30C600C7000330A1
:100630000310C40DC50DC60DC70DFF3E031D182BBD
:100640004208A6004308A7000030A71BFF30A800FF
:10065000A9000030AD000030AC000030AB005C30D1
:10066000AA005524831203132608C4072708031879
:10067000270F3B2B3C2BC50728080318280F412BBD
:10068000422BC60729080318290AC7074708BA00DA
:100690004608B9004508B8004408B7001F22831275
:1006A00003133408DD003308DC005D08C3005C0878
:1006B000C2000800003083120313B6000030B500FA
:1006C0000030B4006430B3005E08C4005F08C500A9
:1006D0000030C51BFF30C600C70003300310C40D37
:1006E000C50DC60DC70DFF3E031D6E2B4208A600AB
:1006F0004308A7000030A71BFF30A800A900003066
:10070000AD000030AC000030AB005C30AA005524D6
:10071000831203132608C40727080318270F912BF9
:10072000922BC50728080318280F972B982BC6076C
:1007300029080318290AC7074708BA004608B9005C
:100740004508B8004408B7001F2283120313340879
:10075000DF003308DE005F08C3005E08C200080047
:10076000003083120313B6000030B5000030B4002F
:100770006430B3005808C4005908C5000030C51BD8
:10078000FF30C600C70003300310C40DC50DC60DF1
:10079000C70DFF3E031DC42B4208A6004308A70057
:1007A0000030A71BFF30A800A9000030AD000030CA
:1007B000AC000030AB005C30AA0055248312031358
:1007C0002608C40727080318270FE72BE82BC507BF
:1007D00028080318280FED2BEE2BC607290803184D
:1007E000290AC7074708BA004608B9004508B800F3
:1007F0004408B7001F22831203133408D9003308BA
:10080000D8005908C3005808C20008008312031317
:100810006708FB007B0883160313A30083120313EE
:100820006608FB007B0883160313A40083120313DE
:100830006508FB007B0883160313A50083120313CE
:100840006408FB007B0883160313A60083120313BE
:100850006308FB007B0883160313A70083120313AE
:100860006208FB007B0883160313A800D4247108D8
:10087000FB007B0883160313A100D4247008FB003F
:100880007B0883160313A200831203136108FB0085
:100890007B0883160313A900831203136008FB006F
:1008A0007B0883160313AA00080000308312031389
:1008B000B2000030B1000030B0000030AF00261CA4
:1008C000752C2A08AF072B0803110318013E031DDE
:1008D000B0072C0803110318013E031DB1072D08B2
:1008E00003110318013E031DB2070130AE000310CF
:1008F000AA0DAB0DAC0DAD0DAE0B772C0130031076
:10090000A90CA80CA70CA60CFF3E031D7F2C2908E0
:10091000280427042604031D5F2C3208A90031088F
:10092000A8003008A7002F08A600080083120313B0
:10093000AB01AC01260827040319CF2CAD01AD0A89
:10094000A71BAE2C01300310A60DA70DFF3E031D03
:10095000A32C0130AA002A08AD07A02C01300310F7
:10096000AB0DAC0DFF3E031DAF2C27082902031D64
:10097000BB2C26082802031CC42C2608A802270822
:10098000031CA903A9022B1401300310A70CA60C09
:10099000FF3E031DC52C0130AD02031DAE2C2C08FB
:1009A000A7002B08A6000800F901FA01831203131F
:1009B0009F144130F300EE30F200F20BDD2CF30B0C
:1009C000DD2C0000831603131E08F200063003100E
:1009D000F20CFF3E031DE72C7208F300F4018312B2
:1009E00003131E08F500F6010310F50DF60D0310B4
:1009F000F50DF60D73087504F70074087604F80019
:100A00007708F9007808FA007A08F1007908F00010
:100A10000800F300F401F501F401F5017008F1009C
:100A2000F20172087502031D172D71087402031874
:100A3000362D831203130C1E192D74087307F10051
:100A4000710884008313000899000130F40703182B
:100A5000F50A0030F5077008F100F201720875021E
:100A6000031D342D71087402031C192D8312031306
:100A70000C120800F300F601F40170087402031868
:100A8000692D74087307F10071088400831300084E
:100A9000F2007208F606F501083075020318642D9D
:100AA000F61F5A2D7608F10071071D3AF200720800
:100AB000F6005C2D0310F60D0130F1007108F5070A
:100AC00008307502031C502D0130F1007108F40745
:100AD0003D2D7608080083120313A900AA01AB017B
:100AE000AA01AB012608A700A80128082B02031DB4
:100AF0007B2D27082A020318982D0C1E7D2D2A080D
:100B00002907A700270884008313000899000130F3
:100B1000AA070318AB0A0030AB072608A700A801F4
:100B200028082B02031D962D27082A02031C7D2D61
:100B30000C1208008C1EB32D8B137D0801210B3085
:100B400083120313A0002008F000A0303A2583127E
:100B50000313A100210883160313AB0013268B1780
:100B6000831203138C122508FF0024088A0023082F
:100B70008400220E8300FE0E7E0E090083160313EE
:100B800018111F3099001812831203139817831637
:100B900003130717871798168C160B178B178312DA
:100BA00003131816202683120313AC002C08E80048
:100BB000A601A60A68306B250800831603130710E8
:100BC00081137F3086007F309500831603178815C8
:100BD0000D30831203139F00831603178901080049
:100BE00083160313871507169417283083120313EF
:100BF0009400831603139101313093008312031381
:100C00008C118D110800831603139115141C062EE8
:100C1000831203131308A6002608A70036268312A2
:100C2000031327080800831203131A086806031D1C
:100C300008000C30F6007608F000A0300925080006
:100C40008312031306087F39A600260883160313B0
:100C5000A0002008080083120313A60026089300B2
:100C6000831603131418302E362608008316031338
:100C700011081F39031D362E141D0800362E64007E
:100C80008001840A0406031900340406402E8316EA
:100C9000031391161116111E08004B2E8316031311
:100CA00091121116111E0800522E831603131115EE
:100CB000111D0800582E831603131114111C08006F
:100CC0005E2E831603139114911C0800642E0134C8
:04400E00F2E0FFFFDE
:00000001FF
